:1000000058EF06F0C5EF01F004EF08F03CEC06F005
:10001000FF0000F000F012000CEF08F018EF00F005
:10003000F26AFC6AF5EC05F0040065EC01F05CEC9A
:1000400005F078EC05F026EC00F0F6D7060E421825
:10005000D8B465B21200335001E016D104010CBFD0
:100060001200A10E476E400E486E7DEC04F0010EAA
:10007000336E256A266A2550600FD96EDA6A000E43
:10008000DF6E254A262A265005E1400E255CD8B0B1
:100090001200F1D71200020E606F3A0E616F010E6E
:1000A000626F636F646B100E656F666B676B000E3B
:1000B0001524686FF00E1620696FFF0E17206A6F07
:1000C000FF0E18206B6F030E6C6FF80E6D6F6E696C
:1000D0006F6B706B080E716F726B736B746B7569FD
:1000E000A50E996F040110BFA50C600E476E400E5F
:1000F000486E50EC04F0336A1200A25106E13F0E44
:10010000346EF80E156E166802D0DAEC05F0000EAB
:10011000176A186AF0D7266A040E256E0CD05DECBB
:1001200006F025C048F026C049F0AAEC04F065ECC2
:1001300001F0254A262A3450526E536A522A000E84
:1001400053225250255C53502658D5E2E8D7112847
:100150000EE112280CE113280AE1142808E1A2C0DC
:1001600011F0A3C012F0A4C013F0A5C014F01150F8
:10017000A219C1E11250A319BEE11350A419BBE1A9
:100180001450A519B8E1256A266A1AD0A651E108CB
:100190002524D96EDA6AAC0E3224E16EE26A040ECE
:1001A000E222DFCFE7FF322A112A000E12221322A9
:1001B00014223A0E321802E1E2EC03F0254A262A14
:1001C00000017BD898E2E2D7E2EC03F0E0EC05F026
:1001D00092D7070E606FA2C061F0A3C062F0A4C006
:1001E00063F0A5C064F0A6C065F0A4C0F8FFA3C08A
:1001F000F7FFA2C0F6FF256A266A0BD009000001AE
:10020000A651A0082524D96EDA6AF5CFDFFF254A6A
:10021000262A53D8F3E3040110BF120066D71FEC5F
:1002200002F069D70C0E606F010E626F020E616FF3
:10023000160EF2EC04F0F5CF63F00A00F5CF64F08F
:10024000060E656F100E666F676B686B600E6A6FE7
:100250000D0E696F6B6B040E6C6F000E6D6B6E6B29
:100260006F697069716972697369746975697669B2
:10027000776B786B796B7A6B7B6B7C6B7D6B7E6B52
:10028000CAD706EC00F037D70001A151020A01E1FC
:1002900002D7010A01E131D7070A01E13CD7010A7F
:1002A00001E155D7030A90E0010A93E00F0AE9E063
:1002B000010AB5E0050AB6E01ED7A651526E536A90
:1002C0005250255C5350265812004BEC06F0425019
:1002D00001E1120062B420EC06F065B2120062B0D7
:1002E0003BEC05F062B8E5EC05F0030E426001D08E
:1002F000030C406A62A61200645064CF4AF07C0E80
:100300004A162AE164B203D0296A040E02D0040E10
:10031000296E2A6E629629C0D9FF2AC0DAFFDF3023
:10032000E8320F0B0D0A20E1396A23D8DECF4AF0FC
:10033000DDCF4BF04AC0D9FF4BC0DAFF3950010F77
:100340001FD817D8DE2A000EDD22392A070E39649D
:10035000ECD792EC05F008D0040E641804E1629624
:100360001AEC05F001D06296402A030E4064C2D711
:10037000030C20EE02F02950D9262A50DA2212006E
:10038000E16EE26ADFCFE7FF120001501F0BE806C3
:1003900001E01200055001E01200060E021814E000
:1003A0001AD0020E3E6E4A0E3FD82C6A090E0AD0B1
:1003B000020E3E6E460402E1870E36D846040AE17C
:1003C0002C6A1D0E2B6E06D00450210AEAE0030AA7
:1003D000EFE0010A3B820138E832030BE80614E043
:1003E0001200020E3E6E440E206E24D0020E3E6EAF
:1003F00004C044F0020C020E3E6E430EF5D7020E0E
:100400003E6E03C043F0020C0250010AD8B4120041
:10041000030AE7E0010AEFE00A0AD8B41200030A6F
:10042000E5E0010AECE01200206E2050D8A40F0E87
:10043000216E1200216A3B92010E2B6E010C4F6A55
:10044000100E506E516A236A246A4FC0F6FF50C0E6
:10045000F7FF51C0F8FF42D80800F5CFDFFF4F2A61
:10046000000E50225122234A242A040E245CEDE37C
:100470000D0EE8CFB2F4600EE8CFB3F4000E496E73
:10048000040E486EAAEC04F04F68130E506E516AC9
:10049000030E246E236851C0F8FF50C0F7FF4FC011
:1004A000F6FF1CD8DF50F56E0C0023C04EF03F0E57
:1004B0004E1607E15DEC06F0040EA66EB50EBEEC1E
:1004C00005F04F06000E505A515A0A0023502410CE
:1004D00001E112002306D8A02406DDD7AC0E2324A8
:1004E000D96E040E2420DA6E120003040BE10150D1
:1004F0001F0B08E1010E3E6E030E021802E13B8065
:1005000001D03B900350D8A4120001501F0B020AE7
:10051000D8A4120005500F0BD8B4120028D8476A8F
:10052000040E486E4726000E4822F3504726F4502A
:10053000482223D847241D6EF45048201E6E030E17
:10054000021805E10FD8040EDF6E0CD81CD005AEE2
:1005500004D008D8400EDF6E400C04D8080EDF6EC1
:1005600001D811D01DC0D9FF1EC0DAFF1200010E44
:100570003E6E05500F0B080D1200010E05AE000E69
:10058000040DF3501200000EDB8E000C3E5010E103
:1005900036EC05F0196E3C0405E1010EF7EC04F0B1
:1005A0003C6A1200000EF7EC04F0010E3C6E010CE8
:1005B00001AE1BD0010E3F6E2B50075C2C5008582B
:1005C00004E207C02BF008C02CF015EC03F0480E35
:1005D000196E010EF7EC04F0000EF7EC04F0240E97
:1005E00004010A6F040E0B6F1CD0020E3F6E040E46
:1005F000196E0750081002E1480E196E3C0405E11F
:10060000010EF7EC04F03C6A05D0000EF7EC04F0A4
:10061000010E3C6E07500810D8A412000401096BAB
:1006200000D0480E086F088F480C080E376E2C500B
:100630000DE1080E2B5C0AE22BC037F03D5002E1C1
:10064000010E03D03D0402E1020E3D6E37C009F4F5
:1006500037502B5E000E2C5A240E1D6E040E1E6E9B
:100660003BA21ED00DD020C0F6FF1DD8B2EC02F088
:100670000E0EF76403D00800F55001D018D81DD82D
:100680003750F1E1120020C0F6FF0DD8B2EC02F0B5
:100690000E0EF76403D00800F55001D008D80DD82D
:1006A0003750F1E1120021C0F7FFF86A1200F6CFCF
:1006B000E1FFF7CFE2FFE7501200DF6E1D4A1E2A6E
:1006C000204A212A370612000138E832030B18E0CD
:1006D0001200010E3E6E040E426E040C010E3E6EC0
:1006E000460E206E1AEF02F02CD8496E49C020F059
:1006F0001AEF02F026D8D96EDA6A03C0DFFF1200C3
:10070000025002E119EF04F0010A02E175EF02F074
:10071000020A02E175EF02F0060ADBE0030A02E1D9
:10072000A6EF03F0010AD8B412000F0AD7E0010ABD
:1007300002E1DEEF07F0030AD7E0010ADBE0070A77
:100740001200010E3E6E0550450F1200800E01187A
:1007500030E01200010E3E6EA40E14EC02F0120EF8
:1007600009D003502DE1010E3E6E380E14EC02F05C
:100770002C6A290E2B6E24D0010E3E6E0350010F01
:10078000476E47C0F6FF0F0EF76E0900F5CF20F059
:10079000216E20C0F6FF21C0F7FFF86A0E0EF76445
:1007A00003D00800F55002D057EC03F02B6E2C6AF2
:1007B00007D00450010ACEE0030AD3E0010ADCE0CE
:1007C0003B821200316A27D03250486E000E48BE7C
:1007D000FF0E496E4A6E4B6E4850115C0D6E4950CB
:1007E00012580E6E4A5013580F6E4B501458106E1C
:1007F0000FC0F8FF0EC0F7FF0DC0F6FF11D80D00B7
:10080000312A0ED80C00312A240EA66EB50EBEEC8D
:1008100005F0FE0E32263250800A7F0FD5E212001C
:10082000AC0E3124D96EDA6A040EDA22DF50F56E8E
:100830001200246B256B22D0010E3E6E3BB0248348
:1008400024D0010E3E6E21D0B7EC02F0476A040EB0
:10085000486E4726000E4822F3504726F45048229F
:10086000BDEC02F047241D6EF45048201E6EB2EC21
:1008700002F0DFA40AD0010E246F07D001501F0B35
:10088000DBE0010ADEE0030ADFE03E04D8A4120048
:10089000240E206E040E216E3B92020E2B6E020C73
:1008A000400E486401D0486E4A6A0DD047504A2431
:1008B000D96EDA6A6C0E4A24E16EE26A040EE22214
:1008C000DFCFE7FF4A2A48504A5CF0E348C011F402
:1008D000400E0401101710BD03D0496A492A01D007
:1008E000496A493A49464946040110514918BF0B23
:1008F0004918106F1087108F1200356A0CBF120054
:1009000048500D5D02E20DC448F0356A0BD02C0E44
:100910003524D96EDA6A040EDA2247503524C0EC49
:1009200001F0352A4850355CF2E3400E0D6F0C178C
:100930000CBD03D0496A492A01D0496A493A49465F
:10094000494604010C514918BF0B49180C6F0C871C
:100950000C8F1200495006E1040E485C03E2496A1C
:10096000040E486E48504A6E49504B6E4C6A4D6AB0
:100970000A0ED8904A364B364C364D36E82EF9D70B
:100980004AC009F04BC00AF04CC00BF04DC00CF04F
:100990000BC0F8FF0AC0F7FFF66A140EA66EB50E7C
:1009A000BEEF05F00F01498181A402D0499102D028
:1009B00018EC00F0060E16D80D0EF5180FE1090020
:1009C000600EF5180BE1F66A100EF76E0900F528B7
:1009D00003E10900F52802E000EF08F018EC00F050
:1009E00000EF00F0F66E100EF76E0900100C476E67
:1009F000080E1A6E1C0E1B6E040E1C6E475006E18C
:100A0000140E1B6E040E1C6E276A02D0040E276E95
:100A1000286E0BD819C0DEFF1AC0DEFF1BC0DEFF38
:100A20001CC0DEFF02D8DF8E120027C0D9FF28C00D
:100A3000DAFF1200040E421808E103C038FF0F016C
:100A40003851050ED8B4030E426E3F04D8A41200EC
:100A500015EC03F0020E3D1802E108D8040C040165
:100A6000480E08BD080E086F088F1200040E04011E
:100A7000086F088F040C030E426E0F01376B626A19
:100A80007B0E366F386BF8EC07F0160E266F658C10
:100A900003D062965DEC06F062B6FBD7659C659864
:100AA000040E196E000EF7EC04F0010E3C6E3B6A6A
:100AB000466A000E34EF06F02D06D8A02E062D5003
:100AC0002E10D8A412004E0E2E6E2D6A060E426015
:100AD00002D08D82060C8DB203D0476A472A01D01E
:100AE000476A47468D504718FD0B47188D6E120018
:100AF000C0BC1200030ED36E65926596F26A0ED8E2
:100B000008D0C0AC04D02F06D8A0300601D006D83B
:100B100004002F503010F5E1FF001200040E306E7B
:100B20002F6A040C0401086B3D6A00AF02D0006B11
:100B30003C6A04AF03D0046B010E3C6E3F6A3E6A10
:100B40002B6A2C6A659864EC03F002EC00F0C6EFA7
:100B500002F0356A1E0E0F01276F400E04010D6F63
:100B60002C0E0E6F040E0F6F080E0C6F0C8F6C0E98
:100B7000126F040E136F400E106F400C476EF29E02
:100B800078EC05F0B50E471804E0030ED36E0300B1
:100B9000FED7550EA76EAA0EA76EA682A6B2FED7E6
:100BA000A694120007D8000E176A186A336A08D88C
:100BB000326A12003E0E346E156AFC0E166EFC0C84
:100BC0001168126813681468120036CF38F0040EEA
:100BD0000F01366F62986582A198A08815EC06F027
:100BE000A09838500F0136131200600ED36E9B8C04
:100BF00047EC06F02AEC06F00F01486B496BD2EC8B
:100C000005F08D92969252EF06F03A0402E13CEC28
:100C100006F0656A150E0F01396F366B65863BEC81
:100C200005F0010E426E3A6A12008D92D3CF41F068
:100C30000300A1B802D0D0A6FBD741C0D3FF120059
:100C400044EC06F065920F01369501D0629462A4DF
:100C50001200FCD705D05DEC06F04706D8A0480688
:100C600047504810F8E11200476E4704D8A412001C
:100C7000A9EC05F0D2EF05F06592656A486847680F
:100C80002AEC06F0426A120002D82AEF06F0030EA0
:100C9000486E476A030C3A0401E1120065A605ECB0
:100CA00006F0120065B63CEC06F03A6A4BEF06F02F
:100CB000000EF86E0001D2EF04F0040012001200E2
:020CC000120020
:100F000000B6046134034D006900630072006F0095
:100F100063006800690070002000540065006300F1
:100F200068006E006F006C006F00670079002000A1
:100F300049006E0063002E000902290001010080B3
:100F40003209040000020300000009211101000120
:100F5000221D000705810340000107050103400031
:100F60000126034800490044002000550053004278
:100F700000200042006F006F0074006C006F006181
:100F8000006400650072000600FF0901A10119015B
:100F90002940150026FF0075089540810019012998
:100FA000409100C01201000200000008D8043C007B
:0B0FB00001010102000104030904001C
:100FBC00010E3E6E0F0116D8366A3650450FD96EAB
:100FCC00DA6ADF6A362A3650F8E003C046F046503B
:100FDC0034EC06F0035003E1050E426E050C060ED0
:100FEC00426E060C276B286B296B2A6B2B6B2C6BB8
:040FFC002D6B120047
:021006000D607B
:08FFF800AAF715FF63F881F17F
:00000001FF
