:020000040000FA
:0400000031EF00F0EC
:100008005182E1CF20F0E2CF21F0D9CF22F0DACF30
:1000180023F0F3CF24F0F4CF25F0F6CF26F0F7CF76
:1000280027F0F8CF28F0F5CF29F0D1EC09F029C056
:10003800F5FF28C0F8FF27C0F7FF26C0F6FF25C048
:10004800F4FF24C0F3FF23C0DAFF22C0D9FF21C088
:0E005800E2FF20C0E1FF5192110076EF15F09B
:100F000000C60F800F4C0F090F09024300020100B9
:100F1000C032090400000102020100052400100192
:100F2000042402020524060001052401000107052E
:100F300081030A000209040100020A0000000705FB
:100F40000202400000070582024000003403430013
:100F5000440043002000520053002D0032003300B3
:100F60003200200045006D0075006C0061007400C7
:100F700069006F006E002000440065006D006F0086
:100F800034034D006900630072006F006300680065
:100F900069007000200054006500630068006E0066
:100FA0006F006C006F0067007900200049006E0040
:100FB00063002E001201000202000008D8040A009B
:0B0FC00000010102000104030904000D
:100FCC0004013205D8A410D030511F0B0009D8A44D
:100FDC000BD00001758F030E04013119D8A402D077
:100FEC00010E01D0000E426E3251D8A412003051C5
:100FFC001F0B020AD8A4120034510F0B0009D8B4ED
:10100C00120034510F0B156E030E15601200200EDA
:10101C004518D8A412000001758F040134BF18D0F4
:10102C0034510F0B156E1550020D7E0EF324D96E34
:10103C00000EF420DA6EDECF1AF0DDCF1BF0345147
:10104C000F0B156E166A8E0E1524D96E000E17D066
:10105C0034510F0B156E1550020D780EF324D96E0A
:10106C00000EF420DA6EDECF1AF0DDCF1BF0345117
:10107C000F0B156E166A910E1524D96E000E1620E4
:10108C00DA6EDF50196E19B006D0FB0E1A141A6EF8
:10109C00FF0E1B1404D0040E1A101A6E1B501B6E7C
:1010AC0034BF0AD034510F0B156E1550020D7E0E45
:1010BC00F324D96E000E09D034510F0B156E155058
:1010CC00020D780EF324D96E000EF420DA6E1AC0DD
:1010DC00DEFF1BC0DDFF030E3119D8A42AD01AC0C5
:1010EC00D9FF1BC0DAFFDFAE17D034BF09D03451A3
:1010FC000F0B156E166A8E0E1524D96E000E08D0C5
:10110C0034510F0B156E166A910E1524D96E000E04
:10111C001620DA6E0001DF821AC0D9FF1BC0DAFF7D
:10112C00000EDB841AC0D9FF1BC0DAFF000EDB8E69
:10113C001200040E1A181A6E1B501B6E1AC0D9FF1F
:10114C001BC0DAFFDFAE1BD01AC0D9FF1BC0DAFF01
:10115C007F0EDF161AC0D9FF1BC0DAFF000EDB8C26
:10116C00000E0E6E050E0D6E1AC00FF01BC010F0A7
:10117C00000E126E020E116E65EC14F006D01AC041
:10118C00D9FF1BC0DAFF000EDB8C040E1A181A6E86
:10119C001B501B6E19B206D01AC0D9FF1BC0DAFF48
:1011AC00DFAE2DD0040134BF09D034510F0B156EB6
:1011BC00166A8E0E1524D96E000E08D034510F0B02
:1011CC00156E166A910E1524D96E000E1620DA6E65
:1011DC000001DF921AC0D9FF1BC0DAFF3B0EDF16ED
:1011EC00000E0E6E050E0D6E1AC00FF01BC010F027
:1011FC00000E126E020E116E65EC14F006D01AC0C1
:10120C00D9FF1BC0DAFF3B0EDF16040134510F0B64
:10121C00156E166A260E1524176E0F0E1620186EF4
:10122C0017C0D9FF18C0DAFFFE0EDF161200F6C089
:10123C00C2F1F7C0C3F10001FA51FB11D8B412008E
:10124C00C2C1D9FFC3C1DAFFF8C0DFFFFA510101F7
:10125C00C2250001FC6FFB510101C3210001FD6F90
:10126C00FF0EFC25D96EFF0EFD21DA6EF8C0DFFFF4
:10127C00FB5104E1030EFA5DD8A01200010120EE2F
:10128C0001F0C251D926C351DA22F8C0DFFF20EE9B
:10129C0002F0C251D926C351DA22F8C0DFFF000197
:1012AC00FA510101C2250001FC6FFB510101C32160
:1012BC000001FD6FFE0EFC25D96EFF0EFD21DA6ECE
:1012CC00F8C0DFFFFA510101C2250001FC6FFB5190
:1012DC000101C3210001FD6FFD0EFC25D96EFF0E2F
:1012EC00FD21DA6EF8C0DFFFFB5104E1070EFA5D59
:1012FC00D8A01200010120EE03F0C251D926C3512F
:10130C00DA22F8C0DFFF0001FA510101C225000109
:10131C00FC6FFB510101C3210001FD6FFC0EFC258C
:10132C00D96EFF0EFD21DA6EF8C0DFFFFB5104E130
:10133C00090EFA5DD8A01200C2C1FCF0C3C1FDF0C9
:10134C00FC1FFD1FFC4BFD2B030EFC150101C06F98
:10135C00C16BC051C227C151C323C0510001FA5FF8
:10136C000101C1510001FB5BFC0EFA17FF0EFB17CC
:10137C000CD0C2C1D9FFC3C1DAFFF8C0DFFFFA0736
:10138C00D8A0FB070101C24BC32B0001FA51FB1182
:10139C00D8B41200EED74504D8B465BA07D0000E05
:1013AC00626E0F0136813689020E456E62A406D03C
:1013BC000F0136A503D062945AEC16F065A202D048
:1013CC00A198120062A009D00F0136A106D0A5EC9D
:1013DC000BF0A088040E456E629062A804D00F0139
:1013EC0036B9ECEC16F062AC1BD00F0136AD0ED05A
:1013FC00000E0E6E730E0D6E000E0F6E000E106E44
:10140C00000E126E010E116E65EC14F0629C3BEC3A
:10141C0017F03E50D8A43E063E50D8B41DEC11F047
:10142C0062AA04D00F0136BBC5EC15F062A212D033
:10143C000F0136A30FD07F0E0E6E0D68000E0F6ECF
:10144C00000E106E000E126E010E116E65EC14F093
:10145C00000E636E040E456002D0A19812000F01BD
:10146C0036A734D0000E1F6E62A630D064CF4FF07A
:10147C004F30E832E8320F0B406E62964FB406D014
:10148C008E0E4024D96EDA6A000E05D0910E4024DF
:10149C00D96EDA6A000EDA220001DF704050D8A44F
:1014AC0003D03FEC13F00ED0000E0E6E720E0D6ECC
:1014BC004F0E0F6E000E106E000E126E000E116E9F
:1014CC0065EC14F01F2A030E1F64CED7A1981200EE
:1014DC00800E04013019D8A41200C00E0001756FE3
:1014EC0080D0B40E0001726F0F0E736F000E776F09
:1014FC00120E766F12003251D8A440D03251020D28
:10150C00070EF324F66E0F0EF420F76E0900F5CFDC
:10151C0072F00A00F5CF73F0020E00017225016E15
:10152C00000E7321026E01C0F6FF02C0F7FFF86ACD
:10153C000E0EF76403D00800F55005D0F6CFE1FF8E
:10154C00F7CFE2FFE7500001766F030E7225016EB4
:10155C00000E7321026E01C0F6FF02C0F7FFF86A9D
:10156C000E0EF76403D00800F55005D0F6CFE1FF5E
:10157C00F7CFE2FFE7500001776F1200000E000179
:10158C00756F1200030E326124D03251020D010E20
:10159C00F324F66E0F0EF420F76E0900F5CF72F0FF
:1015AC000A00F5CF73F072C0F6FF73C0F7FFF86A4C
:1015BC000E0EF76403D00800F55005D0F6CFE1FF0E
:1015CC00F7CFE2FFE750016E01500001766F776BA9
:1015DC001200000E0001756F1200000E0001756FF5
:1015EC00120004013351016E026A0250000AD8A4A1
:1015FC00F4D70150010AD8B474D7030AD8B47BD7F6
:10160C00010AD8B4BFD7E9D7A098000E636E000EBC
:10161C00626E000E0F01266F270E0001F66F0F0E83
:10162C00F76F000EF96F000EF86F000EFB6F020ED5
:10163C00FA6F1DEC09F0160E0F01396F9F0E376F04
:10164C007B0E366F000E0001FE6FFE51040D000E76
:10165C00F324D96E040EF420DA6EDE6ADE6ADE6ADA
:10166C00DD6AFE2B0B0EFE65F0D7658C000E0F01AC
:10167C00386F6598659C6296000E0001756F000EC0
:10168C006D6F000E6F6F000E6E6F62B6F4D7010EA9
:10169C003C6E010E3B6E000E3A6E000E396E000E63
:1016AC00416E000EFE6FFE51020D780EF324D96EC2
:1016BC00000EF420DA6E000EDE6E000EDD6EFE51B2
:1016CC00020D7E0EF324D96E000EF420DA6E000E9D
:1016DC00DE6E000EDD6E910EFE25D96EDA6A000EFE
:1016EC00DA22000EDF6E8E0EFE25D96EDA6A000E3F
:1016FC00DA22000EDF6EFE2B020EFE65D4D7080E2A
:10170C00786F040E796F160E0F01266F040E04010C
:10171C00036F300E026F080E016F040E006F008F06
:10172C00000E506E000E2A6E000E2B6E000E2C6EEC
:10173C00000E2D6E000E386E000E456E1200A09835
:10174C00000E636E000E626E000E0F01266F270EE8
:10175C00016E0F0E026E000E046E000E036E000E74
:10176C00066E020E056E3FEC0CF0160E0F01396F73
:10177C009F0E376F7B0E366F000E0D6E0D50040DE5
:10178C00000EF324D96E040EF420DA6EDE6ADE6AE3
:10179C00DE6ADD6A0D2A0B0E0D64F0D7658C000E27
:1017AC000F01386F6598659C6296000E0001756F8D
:1017BC00000E6D6F000E6F6F000E6E6F62B6F4D779
:1017CC00010E3C6E010E3B6E000E3A6E000E396E31
:1017DC00000E416E000E0D6E0D50020D780EF324AE
:1017EC00D96E000EF420DA6E000EDE6E000EDD6E89
:1017FC000D50020D7E0EF324D96E000EF420DA6E1D
:10180C00000EDE6E000EDD6E910E0D24D96EDA6ABE
:10181C00000EDA22000EDF6E8E0E0D24D96EDA6AFF
:10182C00000EDA22000EDF6E0D2A020E0D64D4D7E4
:10183C00080E0001786F040E796F160E0F01266FDB
:10184C00040E0401036F300E026F080E016F040EBC
:10185C00006F008F000E506E000E2A6E000E2B6E65
:10186C00000E2C6E000E2D6E000E386E000E456EA6
:10187C00120001C00BF002C00CF005500610D8B4D9
:10188C0012000BC0D9FF0CC0DAFF03C0DFFF0550FC
:10189C000B24076E06500C20086EFF0E0724D96E21
:1018AC00FF0E0820DA6E03C0DFFF065004E1030EC2
:1018BC00055CD8A0120020EE01F00B50D9260C507C
:1018CC00DA2203C0DFFF20EE02F00B50D9260C50B9
:1018DC00DA2203C0DFFF05500B24076E06500C20E4
:1018EC00086EFE0E0724D96EFF0E0820DA6E03C0B8
:1018FC00DFFF05500B24076E06500C20086EFD0E02
:10190C000724D96EFF0E0820DA6E03C0DFFF0650E5
:10191C0004E1070E055CD8A0120020EE03F00B507A
:10192C00D9260C50DA2203C0DFFF05500B24076EBA
:10193C0006500C20086EFC0E0724D96EFF0E0820F2
:10194C00DA6E03C0DFFF065004E1090E055CD8A077
:10195C0012000BC007F00CC008F0071E081E074A47
:10196C00082A030E0714096E0A6A09500B260A503E
:10197C000C220950055E0A50065AFC0E0516FF0E85
:10198C0006160BD00BC0D9FF0CC0DAFF03C0DFFF6B
:10199C000506D8A006060B4A0C2A05500610D8B42A
:1019AC001200F0D70101C06F0001F651D8B408D075
:1019BC000101C051020D780EF324D96E000E07D030
:1019CC000101C051020D7E0EF324D96E000EF420DD
:1019DC00DA6EDECFC1F1DDCFC2F1C151C211D8A494
:1019EC0006D0000E0001F66F000EF76F120020EE0D
:1019FC0002F0C151D926C251DA22F7C0DEFFF8C07D
:101A0C00DDFF20EE01F0C151D926C251DA22F9C016
:101A1C00DFFFC1C1D9FFC2C1DAFF400EDF16C1C161
:101A2C00D9FFC2C1DAFF000EDB86C1C1D9FFC2C12A
:101A3C00DAFF000EDB8E0001F651D8B41BD0010189
:101A4C00C051020D780EF324D96E000EF420DA6E1C
:101A5C00DECFFAF0DDCFFBF0040E0001FA19FC6FBB
:101A6C00FB51FD6F0101C051020D780EF324D96EAC
:101A7C00000E1AD00101C051020D7E0EF324D96E56
:101A8C00000EF420DA6EDECFFAF0DDCFFBF0040EA0
:101A9C000001FA19FC6FFB51FD6F0101C051020DE1
:101AAC007E0EF324D96E000EF420DA6EFCC0DEFF3D
:101ABC00FDC0DDFFC1C1F6F0C2C1F7F01200A09865
:101ACC00000194519511D8B408D094C0D9FF95C099
:101ADC00DAFFDFAE02D0A0881200030E3718D8A4AC
:101AEC0002D0000E376E3750D8A402D0A088120056
:101AFC00020E3718D8A412D0010EF66F000EF76F35
:101B0C00000EF86F000EF96F020ED8EC0CF0F6C058
:101B1C0094F0F7C095F0030E376E57D03704D8A465
:101B2C0054D0400E9A6503D0400EFF6F02D09AC07D
:101B3C00FFF0FF519A5D9A6F800E886F010E896FCE
:101B4C00FFC0FEF09951D8B410D022D08BC0D9FF71
:101B5C008CC0DAFF88C0E1FF89C0E2FFDFCFE7FF6E
:101B6C00884B892B8B4B8C2BFE07FE51D8B413D092
:101B7C00EDD78BC0D9FF8CC0DAFF88C0E1FF89C0DC
:101B8C00E2FFDFCFE7FF884B892B8B4B8C2BFE07BB
:101B9C00FE51D8A4EED79A51D8A408D0400EFF1904
:101BAC00D8A402D0020E01D0030E376E010EF66FD0
:101BBC00800EF76F010EF86FFFC0F9F0020ED8EC33
:101BCC000CF0F6C094F0F7C095F0A088120020EE4F
:101BDC0001F03450D9263550DA22DF50026E025013
:101BEC0000016E5D000E6F59D8A06EC002F002505D
:101BFC006E5F000E6F5B000E016E0FD0380E01246D
:101C0C00D96EDA6A040EDA226AC0E1FF6BC0E2FF19
:101C1C00DFCFE7FF6A4B6B2B012A0250015CD8A087
:101C2C00EDD76E516F11D8B432D020EE01F0325096
:101C3C00D9263350DA22080EDF6E20EE02F0325035
:101C4C00D9263350DA22380EDE6E040EDD6E34C027
:101C5C00D9FF35C0DAFFDFBC0DD032C0D9FF33C09D
:101C6C00DAFF480EDF6E32C0D9FF33C0DAFF000E48
:101C7C00DB8E120032C0D9FF33C0DAFF080EDF6EE4
:101C8C0032C0D9FF33C0DAFF000EDB8E120020EE1B
:101C9C0001F03250D9263350DA22080EDF6E20EED6
:101CAC0002F03250D9263350DA22300EDE6E040E9A
:101CBC00DD6E32C0D9FF33C0DAFF040EDF6E32C0E6
:101CCC00D9FF33C0DAFF000EDB8E6D9F3D50D8A4D8
:101CDC0012001DEC11F01200096E0150D8B407D09F
:101CEC000950020D780EF324D96E000E06D009505F
:101CFC00020D7E0EF324D96E000EF420DA6EDECFC8
:101D0C000AF0DDCF0BF00A500B10D8A405D0000E52
:101D1C00016E000E026E120020EE02F00A50D9265F
:101D2C000B50DA2202C0DEFF03C0DDFF20EE01F013
:101D3C000A50D9260B50DA2204C0DFFF0AC0D9FFA3
:101D4C000BC0DAFF400EDF160AC0D9FF0BC0DAFF5A
:101D5C00000EDB860AC0D9FF0BC0DAFF000EDB8E4B
:101D6C000150D8B418D00950020D780EF324D96E56
:101D7C00000EF420DA6EDECF05F0DDCF06F0040E97
:101D8C000518076E0650086E0950020D780EF324E4
:101D9C00D96E000E17D00950020D7E0EF324D96EA9
:101DAC00000EF420DA6EDECF05F0DDCF06F0040E67
:101DBC000518076E0650086E0950020D7E0EF324AE
:101DCC00D96E000EF420DA6E07C0DEFF08C0DDFF0E
:101DDC000AC001F00BC002F01200200E456001D0C9
:101DEC00120065B21200010E25EC16F0E806D8A41C
:101DFC000FD000019851D8A40ED03750D8A40BD0D6
:101E0C00E40EF66F000EF76F9FEC15F0010E01D08B
:101E1C00000E0001986F3750D8A454D0400E010129
:101E2C00C36F010EC46F400EC56F9FEC12F0010121
:101E3C00C86F000EC96F36D0400EC925D96EDA6A4C
:101E4C00010EDA22000EC925E16EE26A010EE222D1
:101E5C00DFCFE7FF26D0000EC925D96EDA6A010E56
:101E6C00DA22400EC925E16EE26A010EE222E75049
:101E7C00C66FC629DF6E15D0400EC925D96EDA6A39
:101E8C00010EDA22DF50C66FC76BC751000AD8A407
:101E9C00E2D7C6510A0AD8B4CFD7070AD8B4CCD7E0
:101EAC00DAD7C92BC851C95DD8A0E6D7C851D8B468
:101EBC0009D0000E0001F66F010EF76FC8C1F8F0E3
:101ECC002AEC17F065EC0DF0120004013039E83201
:101EDC00030B0009D8A4120042D00001758F080E24
:101EEC00456E12006EEC0AF012004DEC10F0120070
:101EFC00500E0001726F000E736F7581010E766FBC
:101F0C00758F1200E1EC11F01200E6EC07F01200F4
:101F1C004D0E34250001726F736B000E73237581A7
:101F2C00010E766F758F12000001758F4D0E040136
:101F3C003425D96EDA6A000EDA2232C4DFFF1200C1
:101F4C00000E0E6E020E0D6E000E0F6E000E106E59
:101F5C00000E126E000E116E65EC14F01200315171
:101F6C001C6E1D6A1D50000AD8A412001C50000AD9
:101F7C00D8B4C8D7010AD8B4C8D7020AD8B4C5D7C0
:101F8C00060AD8B4AAD7030AD8B4ACD7010AD8B475
:101F9C00D7D70F0AD8B4ACD7010AD8B4A6D7030A3E
:101FAC00D8B4B6D7010AD8B4BFD7070A12006598BF
:101FBC00000175BF38D06DAF0BD0020E436E395097
:101FCC00D8B4F0EC12F0000E3B6E000E3C6E12001A
:101FDC0020EE01F03250D9263350DA22080EDF6E93
:101FEC0020EE02F03250D9263350DA22300EDE6E5B
:101FFC00040EDD6E32C0D9FF33C0DAFF0C0EDF6E7B
:10200C0032C0D9FF33C0DAFF000EDB8E78C0D9FFA7
:10201C0079C0DAFF040EDF6E78C0D9FF79C0DAFF21
:10202C00000EDB8E1200040130AF10D0010E436E97
:10203C003A50D8B4F0EC12F0000E3B6E000E3C6E31
:10204C003D50D8A412001DEC11F01200020E436E8C
:10205C0020EE01F03250D9263350DA22080EDF6E12
:10206C0020EE02F03250D9263350DA22300EDE6EDA
:10207C00040EDD6E32C0D9FF33C0DAFF040EDF6E02
:10208C0032C0D9FF33C0DAFF000EDB8ED5D700018A
:10209C00758F270E016E0F0E026E000E046E000E71
:1020AC00036E000E066E020E056E3FEC0CF0000E79
:1020BC00016E040E026E000E046E000E036E000E16
:1020CC00066E300E056E3FEC0CF0658C000E156E36
:1020DC00910E1524D96EDA6A000EDA22000EDF6E2C
:1020EC008E0E1524D96EDA6A000EDA22000EDF6E1F
:1020FC00152A020E1564ECD74D0E016E000E026E01
:10210C00000E046E000E036E000E066E020E056EBF
:10211C003FEC0CF0659C080E0001786F040E796F93
:10212C00000E346E040E356E34C032F035C033F010
:10213C0032C450F05050D8A403D0100E456E12008B
:10214C00000E0E6E010E0D6E500E0F6E000E106E08
:10215C00000E126E010E116E65EC14F0200E456E21
:10216C001200080E016E0001775110E1080E765D29
:10217C00D8B00CD076C001F04450D8A402D0010ED7
:10218C0004D04404D8A402D0020E446E0150765FF1
:10219C00000E775B20EE01F07851D9267951DA22C6
:1021AC0001C0DFFF380E306E040E316E75A11CD0ED
:1021BC003AD072C0F6FF73C0F7FFF86A30C0D9FF8F
:1021CC0031C0DAFF0E0EF76403D00800F55005D0CD
:1021DC00F6CFE1FFF7CFE2FFE750DF6E0001724B65
:1021EC00732B304A312A01060150D8B41200E1D7C2
:1021FC0072C0F6FF73C0F7FFF86A30C0D9FF31C068
:10220C00DAFF0E0EF76403D00800F55005D0F6CFB8
:10221C00E1FFF7CFE2FFE750DF6E0001724B732B4B
:10222C00304A312A01060150D8B41200E1D73C5093
:10223C00D8A41200010E3C6E3B50D8A41200010E23
:10224C003B6E020E4318D8A416D0000120EE01F00C
:10225C007851D9267951DA22000EDF6E78C0D9FF79
:10226C0079C0DAFF480EDF6E78C0D9FF79C0DAFF8B
:10227C00000EDB8E12004304D8A41200000E3F6E39
:10228C0020EE01F03450D9263550DA22080EDF6EDC
:10229C0020EE02F03450D9263550DA22300EDE6EA4
:1022AC00040EDD6E34C0D9FF35C0DAFF040EDF6ECC
:1022BC0034C0D9FF35C0DAFF000EDB8E010E3F6E45
:1022CC0020EE01F03250D9263350DA22080EDF6EA0
:1022DC0020EE02F03250D9263350DA22300EDE6E68
:1022EC00040EDD6E32C0D9FF33C0DAFF800EDF6E14
:1022FC00120078C0D9FF79C0DAFF0001000EDFBCF4
:10230C00010E026E040E7819786F7951796F080EF0
:10231C004518D8A40CD0040132517F0B0F01386F33
:10232C003851D8B402D0100E01D0040E456E4304BF
:10233C00D8A43BD0000120EE02F07851D926795177
:10234C00DA22380EDE6E040EDD6EB7EC10F0020EE3
:10235C004418D8A40DD078C0D9FF79C0DAFF040E88
:10236C00DF6E78C0D9FF79C0DAFF000EDB8E120069
:10237C000250D8A40DD078C0D9FF79C0DAFF480E2E
:10238C00DF6E78C0D9FF79C0DAFF000EDB8E120049
:10239C0078C0D9FF79C0DAFF080EDF6E78C0D9FF9C
:1023AC0079C0DAFF000EDB8E120000016DBF6D9F4D
:1023BC00000E436E1200000E0401386F000E396FD0
:1023CC003DD00001758F4204D8A44AD00401388353
:1023DC0047D00001758F44D00001758F0401345132
:1023EC000F0B0009D8B43CD034BF0AD034510F0BBA
:1023FC00016E0150020D7E0EF324D96E000E09D031
:10240C0034510F0B016E0150020D780EF324D96E6E
:10241C00000EF420DA6EDECF03F0DDCF04F003C043
:10242C00D9FF04C0DAFFDFAE1BD003C0D9FF04C054
:10243C00DAFFDFA415D0010E386F12D030511F0B0C
:10244C00016E026A0250000AD8A40AD00150000A98
:10245C00D8B4B7D7010AD8B4BCD7030AD8B4BCD700
:10246C00000175AF1200380E726F040E736F758118
:10247C00020E766F1200040130511F0BE806D8A42F
:10248C0012003039E832030BE806D8A4120034519C
:10249C00D8B437D03405D8A4120033D0DC0E0001E8
:1024AC00726F000E736F000E776F080E766F75816A
:1024BC00758F1200DC0E0001726F000E736F758F3A
:1024CC00120036C46EF037C46FF0460E00016A6F0E
:1024DC00000E6B6F000E706F000E716F6D8F12001F
:1024EC00460E0001726F000E736F000E776F070EB1
:1024FC00766FC10E756F120032C436F00001758F05
:10250C0012003151016E026A0250000AD8A4120066
:10251C000150000AD8B4C2D7010AD8B4CBD7210ACB
:10252C00D8B4CFD7010AD8B4DBD7030AD8A4120089
:10253C00E3D7000E00019B6F96519711D8B406D0CB
:10254C0096C0D9FF97C0DAFFDFBE41D020EE01F074
:10255C009651D9269751DA220101C551DE5CD8B0CB
:10256C000AD0000120EE01F09651D9269751DA22BB
:10257C00DF500101C56F000E00019B6F13D09C0E44
:10258C009B25D96EDA6A000EDA229B510101C32514
:10259C00E16E0001000E0101C421E26EDFCFE7FF06
:1025AC0000019B2B0101C55100019B5DD8A0E7D711
:1025BC00000EF66F9C0EF76F000EF86F400EF96F61
:1025CC00020ED8EC0CF0F6C096F0F7C097F00001B4
:1025DC009B511200000E3A6E000E396E020E43181B
:1025EC00D8A41FD020EE01F03250D9263350DA2275
:1025FC00080EDF6E20EE02F03250D9263350DA226C
:10260C00380EDE6E040EDD6E32C0D9FF33C0DAFF39
:10261C00480EDF6E32C0D9FF33C0DAFF000EDB8EFE
:10262C001200000176510401365D0001775104015E
:10263C003759D8B004D036C476F037C477F0B7EC3D
:10264C0010F0000120EE02F07851D9267951DA22EF
:10265C00380EDE6E040EDD6E78C0D9FF79C0DAFF5D
:10266C00480EDF6E78C0D9FF79C0DAFF000EDB8E22
:10267C0012002D0E3E6E4FC01EF0FD0E1E16D8A47D
:10268C003BD04FC01EF0D8901E323F0E1E161E506F
:10269C00040D000EF324346E040EF420356E34C099
:1026AC0032F035C033F0040E3218326E3350336EC4
:1026BC0034C0D9FF35C0DAFFDF30E8320F0B0D0A1A
:1026CC00D8A417D0300E016E040E026E20EE02F06C
:1026DC003450D9263550DA22DECF03F0DDCF04F0AA
:1026EC00000E066E080E056EE7EC15F01DEC14F0EE
:1026FC00120048EC15F012004F50FD0B040AD8A440
:10270C0012007FEC11F01200066E000E076E040E24
:10271C00086E0150026E036AD890023603360650DA
:10272C00046E056AD89004360536D8900436053602
:10273C000250042603500522D89004360536D89052
:10274C0004360536045007260550082207C0D9FF69
:10275C0008C0DAFFDF9E0150D8A407D00650020D46
:10276C007E0EF324D96E000E06D00650020D780EA4
:10277C00F324D96E000EF420DA6E07C0DEFF08C019
:10278C00DDFF07C0D9FF08C0DAFFDF9C20EE04F0A4
:10279C000750D9260850DA22DF8C120065A238D0F7
:1027AC00010EBDEC16F012002E042F10D8A404D08C
:1027BC00010EA5EC16F038D04B0E2E182F10D8A405
:1027CC0004D0010EBDEC16F02FD02F5004E1970E63
:1027DC002E5CD8A029D0000E2F6E000E2E6E24D0A9
:1027EC002E042F10D8A404D0010EA5EC16F01CD08A
:1027FC00320E2E182F10D8A404D0010EBDEC16F0FA
:10280C0013D0B70E2E5C030E2F58D8B0E4D70CD0D3
:10281C004550046E056A0550000AD8A4E1D704504F
:10282C00200AD8B4C1D7DCD72E4A2F2A1200000EAA
:10283C00446E000E3D6E000E3A6E000E396E000EA8
:10284C003F6E000E436E78C0D9FF79C0DAFF7F0E61
:10285C00DF16040E00017819786F7951796F78C002
:10286C00D9FF79C0DAFF7F0EDF16040E7819786F66
:10287C007951796F32C0D9FF33C0DAFF7F0EDF1682
:10288C00000E756F000E776F000E766F000E6D6F79
:10289C00000E6F6F000E6E6F6BEC0FF0000E0E6E75
:1028AC00030E0D6E000E0F6E000E106E000E126EEB
:1028BC00000E116E65EC14F0DDEC0FF0120017D069
:1028CC00D4EC13F01200D4EC13F0010EDFEC14F086
:1028DC001200D4EC13F0020EDFEC14F0120016EC24
:1028EC0015F018EC17F0120041EC12F012000DC0AC
:1028FC0013F00EC014F01450000AD8B404D07F0AA0
:10290C00D8A412001AD01350010AD8B4E8D7030A7D
:10291C00D8B41200010AD8B4E7D7060AD8B412000A
:10292C00770AD8B41200010AD8B4CAD7070AD8B4A7
:10293C00D0D7010AD8A41200C6D71350FF0A120030
:10294C000001FF6F23D0020EFC6F580EFB6F9B8CA7
:10295C00FB07D8A0FC07FB29FBE1FC29D8A4F8D77E
:10296C00010E40EC16F0010ED5EC16F01200700EB4
:10297C00D36E030EFE6F200EFD6FFD07D8A0FE0771
:10298C00FD29FBE1FE29D8B41200F7D70001FF5155
:10299C00F96FFA6BFA51000AD8A41200F951000A27
:1029AC00D8B4D1D7010AD8B41200030AD8A41200A3
:1029BC00DED70A6E23D0020E076E580E066E9B8C65
:1029CC000606D8A007060628FBE10728D8A4F8D7E6
:1029DC00010E8DEC16F0010E03EC17F01200700EC8
:1029EC00D36E030E096E200E086E0806D8A00906D9
:1029FC000828FBE10928D8B41200F7D70A50046E56
:102A0C00056A0550000AD8A412000450000AD8B474
:102A1C00D2D7010AD8B41200030AD8A41200DFD707
:102A2C00000E466E4B0E476E000E486E000E496E41
:102A3C00000E4A6E000E4B6E080E4C6E000E00011E
:102A4C009B6F1A0E096E010E09EC16F01E0E096E24
:102A5C00020E09EC16F0000E016E9C0E026E000EBA
:102A6C00036E400E046E020E72EC0EF001C096F076
:102A7C0002C097F0000E0001946F000E956F000ECF
:102A8C00376E1200020E4318D8A403D0EDEC0DF0F3
:102A9C001200000E436E3F50D8A41FD020EE01F060
:102AAC003250D9263350DA22080EDF6E20EE02F0B7
:102ABC003250D9263350DA22300EDE6E040EDD6E23
:102ACC0032C0D9FF33C0DAFF0C0EDF6E32C0D9FF33
:102ADC0033C0DAFF000EDB8E1200000E3F6E1200C8
:102AEC00A80EF66E2E0EF76E000EF86E00EEE4F0E9
:102AFC0010EE12F00900F5CFEEFFE550E150FAE1CF
:102B0C0001EE00F0C00EEE6AE806FDE100EE60F0AA
:102B1C00840EEE6AE806FDE100EE2AF0270EEE6A5E
:102B2C00E806FDE151905192000EF86E00014AEF5B
:102B3C0017F0A0983750D8B402D0A0881200000E1D
:102B4C000001FA6FF6C0F8F0F7C0F9F0FA2BFA2989
:102B5C00D8B409D0F8C0D9FFF9C0DAFFF84BF92B7B
:102B6C00DF50D8A4F3D7F6C08BF0F7C08CF0FAC0C6
:102B7C009AF0000E996F010E376EA08812000F01AB
:102B8C0026A11DD034C0D9FF35C0DAFF800EDE1867
:102B9C00D8A414D078C0D9FF79C0DAFF840EDE181F
:102BAC00D8A40CD034C0D9FF35C0DAFF0C0EDF6EC0
:102BBC0034C0D9FF35C0DAFF000EDB8E2691629A45
:102BCC00120003C009F004C00AF001C007F002C0F3
:102BDC0008F010D009C0D9FF0AC0DAFFDF500B6E25
:102BEC00094A0A2A07C0D9FF08C0DAFF0BC0DFFF69
:102BFC00074A082A0506D8A006060528EBE1062890
:102C0C00D8B41200E7D70C6E09A405D0000E016EE3
:102C1C000C508AEC13F009A205D0010E016E0C5079
:102C2C008AEC13F0260E0C240A6E0B6A0F0E0B2284
:102C3C000AC0D9FF0BC0DAFF09C0DFFF1200000188
:102C4C00F86F08D081B402D0010E1200000E1200F1
:102C5C00000E12000001F851F66FF76BF751000AE5
:102C6C00D8A4F6D7F651000AD8B4F2D7010AD8B4D2
:102C7C00E9D7EED70001F86F04D096901200969227
:102C8C0012000001F851F66FF76BF751000AD8A447
:102C9C001200F651000AD8B41200010AD8B4EDD7CC
:102CAC00030AD8A41200EBD7000E416E000E0E6E74
:102CBC00740E0D6E000E0F6E000E106E000E126E66
:102CCC00000E116E65EC14F065920F01369501D073
:102CDC00629462B4FDD7000E386E12004550D8A431
:102CEC001200000E656E000E0F01366F160E396F56
:102CFC009F0E376F7B0E366FD08EA288A088F28E17
:102D0C0001D0658665A6FDD7010E456E1200036ED7
:102D1C0004D096901200969212000350016E026A33
:102D2C000250000AD8A412000150000AD8B41200B4
:102D3C00010AD8B4EED7030AD8A41200ECD7036E5C
:102D4C0004D08D8012008D8212000350016E026A35
:102D5C000250000AD8A412000150000AD8B4120084
:102D6C00010AD8B4EED7030AD8A41200ECD7036E2C
:102D7C0004D08D9012008D9212000350016E026AE5
:102D8C000250000AD8A412000150000AD8B4120054
:102D9C00010AD8B4EED7030AD8A41200ECD700016C
:102DAC00F86F04D093840F01498112000001F8518F
:102DBC00F66FF76BF751000AD8A41200F651000A0F
:102DCC00D8B41200010AD8A41200ECD70F01368532
:102DDC0062986582010E416E000E386E000E0E6E0A
:102DEC00750E0D6E000E0F6E000E106E000E126E34
:102DFC00000E116E65EC14F01200036E04D0938477
:102E0C000F01498112000350016E026A0250000A40
:102E1C00D8A412000150000AD8B41200010AD8A498
:102E2C001200EDD7000E4A6E080E4C6E000E4B6E63
:102E3C00800E466E250E476E000E486E000E496ED3
:102E4C00000E0001986F1200A0983750D8A40BD038
:102E5C00F6C08BF0F7C08CF0F8C09AF0010E0001B0
:102E6C00996F010E376EA0881200010E2A26000EF3
:102E7C002B222C222D224150D8A41200382A385053
:102E8C00D8A4120038681200000EA6EC14F00AEC5C
:102E9C000BF074EC16F0F3EC0EF0FDD74275747475
:0E2EAC006F6E20707265737365642E0D0A00E0
:08FFF800AAF71DFF63F881F177
:00000001FF
